{
  "_format": "hh-sol-artifact-1",
  "contractName": "Staker",
  "sourceName": "contracts/Staker.sol",
  "abi": [
    {
      "inputs": [
        {
          "internalType": "address",
          "name": "_enerToken",
          "type": "address"
        },
        {
          "internalType": "address",
          "name": "_kwhToken",
          "type": "address"
        },
        {
          "internalType": "uint256",
          "name": "_stakingRewardRate",
          "type": "uint256"
        }
      ],
      "stateMutability": "nonpayable",
      "type": "constructor"
    },
    {
      "anonymous": false,
      "inputs": [
        {
          "indexed": false,
          "internalType": "address",
          "name": "",
          "type": "address"
        },
        {
          "indexed": false,
          "internalType": "uint256",
          "name": "",
          "type": "uint256"
        }
      ],
      "name": "Received",
      "type": "event"
    },
    {
      "anonymous": false,
      "inputs": [
        {
          "indexed": true,
          "internalType": "address",
          "name": "sender",
          "type": "address"
        },
        {
          "indexed": false,
          "internalType": "uint256",
          "name": "amount",
          "type": "uint256"
        }
      ],
      "name": "Stake",
      "type": "event"
    },
    {
      "inputs": [
        {
          "internalType": "uint256",
          "name": "amount",
          "type": "uint256"
        }
      ],
      "name": "_calculateGovernanceTokenStakingRewardByAmount",
      "outputs": [
        {
          "internalType": "uint256",
          "name": "",
          "type": "uint256"
        }
      ],
      "stateMutability": "view",
      "type": "function"
    },
    {
      "inputs": [
        {
          "internalType": "address",
          "name": "user",
          "type": "address"
        }
      ],
      "name": "addAdmin",
      "outputs": [],
      "stateMutability": "nonpayable",
      "type": "function"
    },
    {
      "inputs": [
        {
          "internalType": "uint256",
          "name": "amount",
          "type": "uint256"
        }
      ],
      "name": "addGovernmentTokenReward",
      "outputs": [],
      "stateMutability": "nonpayable",
      "type": "function"
    },
    {
      "inputs": [
        {
          "internalType": "address",
          "name": "",
          "type": "address"
        }
      ],
      "name": "adminMap",
      "outputs": [
        {
          "internalType": "bool",
          "name": "",
          "type": "bool"
        }
      ],
      "stateMutability": "view",
      "type": "function"
    },
    {
      "inputs": [
        {
          "internalType": "address",
          "name": "",
          "type": "address"
        }
      ],
      "name": "balances",
      "outputs": [
        {
          "internalType": "uint256",
          "name": "",
          "type": "uint256"
        }
      ],
      "stateMutability": "view",
      "type": "function"
    },
    {
      "inputs": [
        {
          "internalType": "address",
          "name": "user",
          "type": "address"
        }
      ],
      "name": "calculateGovernanceTokenStakingReward",
      "outputs": [
        {
          "internalType": "uint256",
          "name": "",
          "type": "uint256"
        }
      ],
      "stateMutability": "view",
      "type": "function"
    },
    {
      "inputs": [
        {
          "internalType": "address",
          "name": "user",
          "type": "address"
        }
      ],
      "name": "calculateUtilityTokenReward",
      "outputs": [
        {
          "internalType": "uint256",
          "name": "",
          "type": "uint256"
        }
      ],
      "stateMutability": "view",
      "type": "function"
    },
    {
      "inputs": [
        {
          "internalType": "address",
          "name": "",
          "type": "address"
        }
      ],
      "name": "depositTimestamps",
      "outputs": [
        {
          "internalType": "uint256",
          "name": "",
          "type": "uint256"
        }
      ],
      "stateMutability": "view",
      "type": "function"
    },
    {
      "inputs": [
        {
          "internalType": "uint256",
          "name": "amount",
          "type": "uint256"
        }
      ],
      "name": "distributeUtilityTokenReward",
      "outputs": [],
      "stateMutability": "nonpayable",
      "type": "function"
    },
    {
      "inputs": [],
      "name": "governanceToken",
      "outputs": [
        {
          "internalType": "contract IERC20",
          "name": "",
          "type": "address"
        }
      ],
      "stateMutability": "view",
      "type": "function"
    },
    {
      "inputs": [],
      "name": "governanceTokenStakingRewardPool",
      "outputs": [
        {
          "internalType": "uint256",
          "name": "",
          "type": "uint256"
        }
      ],
      "stateMutability": "view",
      "type": "function"
    },
    {
      "inputs": [
        {
          "internalType": "address",
          "name": "user",
          "type": "address"
        }
      ],
      "name": "isAdmin",
      "outputs": [
        {
          "internalType": "bool",
          "name": "",
          "type": "bool"
        }
      ],
      "stateMutability": "view",
      "type": "function"
    },
    {
      "inputs": [],
      "name": "lockDuration",
      "outputs": [
        {
          "internalType": "uint256",
          "name": "",
          "type": "uint256"
        }
      ],
      "stateMutability": "view",
      "type": "function"
    },
    {
      "inputs": [],
      "name": "owner",
      "outputs": [
        {
          "internalType": "address",
          "name": "",
          "type": "address"
        }
      ],
      "stateMutability": "view",
      "type": "function"
    },
    {
      "inputs": [],
      "name": "reclaimRemainingGovernmentTokenReward",
      "outputs": [],
      "stateMutability": "nonpayable",
      "type": "function"
    },
    {
      "inputs": [],
      "name": "redeemUtilityTokenDistribution",
      "outputs": [],
      "stateMutability": "nonpayable",
      "type": "function"
    },
    {
      "inputs": [
        {
          "internalType": "address",
          "name": "user",
          "type": "address"
        }
      ],
      "name": "removeAdmin",
      "outputs": [],
      "stateMutability": "nonpayable",
      "type": "function"
    },
    {
      "inputs": [
        {
          "internalType": "address",
          "name": "",
          "type": "address"
        }
      ],
      "name": "rewards",
      "outputs": [
        {
          "internalType": "uint256",
          "name": "",
          "type": "uint256"
        }
      ],
      "stateMutability": "view",
      "type": "function"
    },
    {
      "inputs": [
        {
          "internalType": "uint256",
          "name": "amount",
          "type": "uint256"
        }
      ],
      "name": "stake",
      "outputs": [],
      "stateMutability": "payable",
      "type": "function"
    },
    {
      "inputs": [],
      "name": "stakingRewardRate",
      "outputs": [
        {
          "internalType": "uint256",
          "name": "",
          "type": "uint256"
        }
      ],
      "stateMutability": "view",
      "type": "function"
    },
    {
      "inputs": [],
      "name": "totalStaked",
      "outputs": [
        {
          "internalType": "uint256",
          "name": "",
          "type": "uint256"
        }
      ],
      "stateMutability": "view",
      "type": "function"
    },
    {
      "inputs": [],
      "name": "utilityToken",
      "outputs": [
        {
          "internalType": "contract IERC20",
          "name": "",
          "type": "address"
        }
      ],
      "stateMutability": "view",
      "type": "function"
    },
    {
      "inputs": [],
      "name": "utilityTokenRewardPool",
      "outputs": [
        {
          "internalType": "uint256",
          "name": "",
          "type": "uint256"
        }
      ],
      "stateMutability": "view",
      "type": "function"
    },
    {
      "inputs": [],
      "name": "utilityTokenRewardPoolBalance",
      "outputs": [
        {
          "internalType": "uint256",
          "name": "",
          "type": "uint256"
        }
      ],
      "stateMutability": "view",
      "type": "function"
    },
    {
      "inputs": [],
      "name": "withdrawGovernanceToken",
      "outputs": [],
      "stateMutability": "nonpayable",
      "type": "function"
    },
    {
      "stateMutability": "payable",
      "type": "receive"
    }
  ],
  "bytecode": "0x60c0604052620151806004553480156200001857600080fd5b50604051620026353803806200263583398181016040528101906200003e9190620002fa565b600073ffffffffffffffffffffffffffffffffffffffff168273ffffffffffffffffffffffffffffffffffffffff1603620000b0576040517f08c379a0000000000000000000000000000000000000000000000000000000008152600401620000a790620003b7565b60405180910390fd5b8173ffffffffffffffffffffffffffffffffffffffff1660a08173ffffffffffffffffffffffffffffffffffffffff1681525050600073ffffffffffffffffffffffffffffffffffffffff168373ffffffffffffffffffffffffffffffffffffffff160362000156576040517f08c379a00000000000000000000000000000000000000000000000000000000081526004016200014d906200044f565b60405180910390fd5b8273ffffffffffffffffffffffffffffffffffffffff1660808173ffffffffffffffffffffffffffffffffffffffff168152505033600a60006101000a81548173ffffffffffffffffffffffffffffffffffffffff021916908373ffffffffffffffffffffffffffffffffffffffff1602179055506001600b6000600a60009054906101000a900473ffffffffffffffffffffffffffffffffffffffff1673ffffffffffffffffffffffffffffffffffffffff1673ffffffffffffffffffffffffffffffffffffffff16815260200190815260200160002060006101000a81548160ff0219169083151502179055508060058190555050505062000471565b600080fd5b600073ffffffffffffffffffffffffffffffffffffffff82169050919050565b600062000287826200025a565b9050919050565b62000299816200027a565b8114620002a557600080fd5b50565b600081519050620002b9816200028e565b92915050565b6000819050919050565b620002d481620002bf565b8114620002e057600080fd5b50565b600081519050620002f481620002c9565b92915050565b60008060006060848603121562000316576200031562000255565b5b60006200032686828701620002a8565b93505060206200033986828701620002a8565b92505060406200034c86828701620002e3565b9150509250925092565b600082825260208201905092915050565b7f7574696c697479546f6b656e2063616e206e6f74206265207a65726f00000000600082015250565b60006200039f601c8362000356565b9150620003ac8262000367565b602082019050919050565b60006020820190508181036000830152620003d28162000390565b9050919050565b7f676f7665726e616e6365546f6b656e416464726573732063616e206e6f74206260008201527f65207a65726f0000000000000000000000000000000000000000000000000000602082015250565b60006200043760268362000356565b91506200044482620003d9565b604082019050919050565b600060208201905081810360008301526200046a8162000428565b9050919050565b60805160a05161215f620004d660003960008181610aad01528181610c9101526112a30152600081816107f501528181610e4601528181610f23015281816110750152818161149a015281816116120152818161164f015261177d015261215f6000f3fe60806040526004361061016a5760003560e01c8063817b1cd2116100d1578063c082cdca1161008a578063dd7618ec11610064578063dd7618ec14610575578063e61980de1461058c578063f77c9ddb146105c9578063f96dae0a146105f4576101aa565b8063c082cdca146104e4578063d755ecaa14610521578063dbbc830b14610538576101aa565b8063817b1cd2146103e15780638da5cb5b1461040c57806398e3f1f7146104375780639bb2836614610474578063a694fc3a1461049d578063ae86ed89146104b9576101aa565b806327e235e31161012357806327e235e3146102e5578063311abd9b146103225780633a61192c1461034b5780634f3fc2df1461037657806370480275146103a15780637f8205f5146103ca576101aa565b806304554443146101af5780630700037d146101da578063145f0106146102175780631785f53c14610242578063240be9441461026b57806324d7806c146102a8576101aa565b366101aa577f88a5966d370b9919b20f3e2c13ff65706f196a4e32cc2c12bf57088f8852587433346040516101a09291906117f9565b60405180910390a1005b600080fd5b3480156101bb57600080fd5b506101c461061f565b6040516101d19190611822565b60405180910390f35b3480156101e657600080fd5b5061020160048036038101906101fc919061186e565b610625565b60405161020e9190611822565b60405180910390f35b34801561022357600080fd5b5061022c61063d565b6040516102399190611822565b60405180910390f35b34801561024e57600080fd5b506102696004803603810190610264919061186e565b610643565b005b34801561027757600080fd5b50610292600480360381019061028d919061186e565b610725565b60405161029f9190611822565b60405180910390f35b3480156102b457600080fd5b506102cf60048036038101906102ca919061186e565b61073d565b6040516102dc91906118b6565b60405180910390f35b3480156102f157600080fd5b5061030c6004803603810190610307919061186e565b610793565b6040516103199190611822565b60405180910390f35b34801561032e57600080fd5b50610349600480360381019061034491906118fd565b6107ab565b005b34801561035757600080fd5b506103606108ab565b60405161036d9190611822565b60405180910390f35b34801561038257600080fd5b5061038b6108b1565b6040516103989190611822565b60405180910390f35b3480156103ad57600080fd5b506103c860048036038101906103c3919061186e565b6108b7565b005b3480156103d657600080fd5b506103df6109a2565b005b3480156103ed57600080fd5b506103f6610ba6565b6040516104039190611822565b60405180910390f35b34801561041857600080fd5b50610421610bac565b60405161042e919061192a565b60405180910390f35b34801561044357600080fd5b5061045e6004803603810190610459919061186e565b610bd2565b60405161046b9190611822565b60405180910390f35b34801561048057600080fd5b5061049b600480360381019061049691906118fd565b610c47565b005b6104b760048036038101906104b291906118fd565b610e44565b005b3480156104c557600080fd5b506104ce6112a1565b6040516104db91906119a4565b60405180910390f35b3480156104f057600080fd5b5061050b6004803603810190610506919061186e565b6112c5565b6040516105189190611822565b60405180910390f35b34801561052d57600080fd5b5061053661131a565b005b34801561054457600080fd5b5061055f600480360381019061055a919061186e565b6115a8565b60405161056c91906118b6565b60405180910390f35b34801561058157600080fd5b5061058a6115c8565b005b34801561059857600080fd5b506105b360048036038101906105ae91906118fd565b611752565b6040516105c09190611822565b60405180910390f35b3480156105d557600080fd5b506105de611775565b6040516105eb9190611822565b60405180910390f35b34801561060057600080fd5b5061060961177b565b60405161061691906119a4565b60405180910390f35b60045481565b60026020528060005260406000206000915090505481565b60085481565b600a60009054906101000a900473ffffffffffffffffffffffffffffffffffffffff1673ffffffffffffffffffffffffffffffffffffffff163373ffffffffffffffffffffffffffffffffffffffff16146106d3576040517f08c379a00000000000000000000000000000000000000000000000000000000081526004016106ca90611a1c565b60405180910390fd5b600b60008273ffffffffffffffffffffffffffffffffffffffff1673ffffffffffffffffffffffffffffffffffffffff16815260200190815260200160002060006101000a81549060ff021916905550565b60016020528060005260406000206000915090505481565b6000600b60008373ffffffffffffffffffffffffffffffffffffffff1673ffffffffffffffffffffffffffffffffffffffff16815260200190815260200160002060009054906101000a900460ff169050919050565b60006020528060005260406000206000915090505481565b6107b43361073d565b6107f3576040517f08c379a00000000000000000000000000000000000000000000000000000000081526004016107ea90611a88565b60405180910390fd5b7f000000000000000000000000000000000000000000000000000000000000000073ffffffffffffffffffffffffffffffffffffffff166323b872dd3330846040518463ffffffff1660e01b815260040161085093929190611aa8565b6020604051808303816000875af115801561086f573d6000803e3d6000fd5b505050506040513d601f19601f820116820180604052508101906108939190611b0b565b50806009546108a29190611b67565b60098190555050565b60075481565b60055481565b600a60009054906101000a900473ffffffffffffffffffffffffffffffffffffffff1673ffffffffffffffffffffffffffffffffffffffff163373ffffffffffffffffffffffffffffffffffffffff1614610947576040517f08c379a000000000000000000000000000000000000000000000000000000000815260040161093e90611a1c565b60405180910390fd5b6001600b60008373ffffffffffffffffffffffffffffffffffffffff1673ffffffffffffffffffffffffffffffffffffffff16815260200190815260200160002060006101000a81548160ff02191690831515021790555050565b6000600260003373ffffffffffffffffffffffffffffffffffffffff1673ffffffffffffffffffffffffffffffffffffffff1681526020019081526020016000205403610a24576040517f08c379a0000000000000000000000000000000000000000000000000000000008152600401610a1b90611be7565b60405180910390fd5b6000600260003373ffffffffffffffffffffffffffffffffffffffff1673ffffffffffffffffffffffffffffffffffffffff16815260200190815260200160002054905060008111610aab576040517f08c379a0000000000000000000000000000000000000000000000000000000008152600401610aa290611c53565b60405180910390fd5b7f000000000000000000000000000000000000000000000000000000000000000073ffffffffffffffffffffffffffffffffffffffff1663a9059cbb33836040518363ffffffff1660e01b8152600401610b069291906117f9565b6020604051808303816000875af1158015610b25573d6000803e3d6000fd5b505050506040513d601f19601f82011682018060405250810190610b499190611b0b565b506000600260003373ffffffffffffffffffffffffffffffffffffffff1673ffffffffffffffffffffffffffffffffffffffff1681526020019081526020016000208190555080600854610b9d9190611c73565b60088190555050565b60065481565b600a60009054906101000a900473ffffffffffffffffffffffffffffffffffffffff1681565b60008060065403610be65760009050610c42565b6006546000808473ffffffffffffffffffffffffffffffffffffffff1673ffffffffffffffffffffffffffffffffffffffff16815260200190815260200160002054600754610c359190611ca7565b610c3f9190611d18565b90505b919050565b610c503361073d565b610c8f576040517f08c379a0000000000000000000000000000000000000000000000000000000008152600401610c8690611dbb565b60405180910390fd5b7f000000000000000000000000000000000000000000000000000000000000000073ffffffffffffffffffffffffffffffffffffffff166323b872dd3330846040518463ffffffff1660e01b8152600401610cec93929190611aa8565b6020604051808303816000875af1158015610d0b573d6000803e3d6000fd5b505050506040513d601f19601f82011682018060405250810190610d2f9190611b0b565b5080600854610d3e9190611b67565b60078190555060075460088190555060005b600380549050811015610e40576000610da660038381548110610d7657610d75611ddb565b5b9060005260206000200160009054906101000a900473ffffffffffffffffffffffffffffffffffffffff16610bd2565b90506000811115610e3457806002600060038581548110610dca57610dc9611ddb565b5b9060005260206000200160009054906101000a900473ffffffffffffffffffffffffffffffffffffffff1673ffffffffffffffffffffffffffffffffffffffff1673ffffffffffffffffffffffffffffffffffffffff168152602001908152602001600020819055505b50806001019050610d50565b5050565b7f000000000000000000000000000000000000000000000000000000000000000073ffffffffffffffffffffffffffffffffffffffff166370a08231336040518263ffffffff1660e01b8152600401610e9d919061192a565b602060405180830381865afa158015610eba573d6000803e3d6000fd5b505050506040513d601f19601f82011682018060405250810190610ede9190611e1f565b811115610f20576040517f08c379a0000000000000000000000000000000000000000000000000000000008152600401610f1790611ebe565b60405180910390fd5b807f000000000000000000000000000000000000000000000000000000000000000073ffffffffffffffffffffffffffffffffffffffff1663dd62ed3e33306040518363ffffffff1660e01b8152600401610f7c929190611ede565b602060405180830381865afa158015610f99573d6000803e3d6000fd5b505050506040513d601f19601f82011682018060405250810190610fbd9190611e1f565b1015610ffe576040517f08c379a0000000000000000000000000000000000000000000000000000000008152600401610ff590611f79565b60405180910390fd5b60008160065461100e9190611b67565b905060006064600554836110229190611ca7565b61102c9190611d18565b9050600954811115611073576040517f08c379a000000000000000000000000000000000000000000000000000000000815260040161106a90611fe5565b60405180910390fd5b7f000000000000000000000000000000000000000000000000000000000000000073ffffffffffffffffffffffffffffffffffffffff166323b872dd3330866040518463ffffffff1660e01b81526004016110d093929190611aa8565b6020604051808303816000875af11580156110ef573d6000803e3d6000fd5b505050506040513d601f19601f820116820180604052508101906111139190611b0b565b50826000803373ffffffffffffffffffffffffffffffffffffffff1673ffffffffffffffffffffffffffffffffffffffff1681526020019081526020016000205461115e9190611b67565b6000803373ffffffffffffffffffffffffffffffffffffffff1673ffffffffffffffffffffffffffffffffffffffff1681526020019081526020016000208190555042600160003373ffffffffffffffffffffffffffffffffffffffff1673ffffffffffffffffffffffffffffffffffffffff16815260200190815260200160002081905550816006819055506003339080600181540180825580915050600190039060005260206000200160009091909190916101000a81548173ffffffffffffffffffffffffffffffffffffffff021916908373ffffffffffffffffffffffffffffffffffffffff1602179055503373ffffffffffffffffffffffffffffffffffffffff167febedb8b3c678666e7f36970bc8f57abf6d8fa2e828c0da91ea5b75bf68ed101a846040516112949190611822565b60405180910390a2505050565b7f000000000000000000000000000000000000000000000000000000000000000081565b6000806000808473ffffffffffffffffffffffffffffffffffffffff1673ffffffffffffffffffffffffffffffffffffffff16815260200190815260200160002054905061131281611752565b915050919050565b60008060003373ffffffffffffffffffffffffffffffffffffffff1673ffffffffffffffffffffffffffffffffffffffff168152602001908152602001600020541161139b576040517f08c379a000000000000000000000000000000000000000000000000000000000815260040161139290612077565b60405180910390fd5b60008060003373ffffffffffffffffffffffffffffffffffffffff1673ffffffffffffffffffffffffffffffffffffffff1681526020019081526020016000205490506000600160003373ffffffffffffffffffffffffffffffffffffffff1673ffffffffffffffffffffffffffffffffffffffff1681526020019081526020016000205460045461142d9190611b67565b4211156114445761143d336112c5565b9050611488565b600160003373ffffffffffffffffffffffffffffffffffffffff1673ffffffffffffffffffffffffffffffffffffffff168152602001908152602001600020600090555b600082826114969190611b67565b90507f000000000000000000000000000000000000000000000000000000000000000073ffffffffffffffffffffffffffffffffffffffff1663a9059cbb33836040518363ffffffff1660e01b81526004016114f39291906117f9565b6020604051808303816000875af1158015611512573d6000803e3d6000fd5b505050506040513d601f19601f820116820180604052508101906115369190611b0b565b50826006546115459190611c73565b600681905550816009546115599190611c73565b60098190555060008060003373ffffffffffffffffffffffffffffffffffffffff1673ffffffffffffffffffffffffffffffffffffffff16815260200190815260200160002081905550505050565b600b6020528060005260406000206000915054906101000a900460ff1681565b6115d13361073d565b611610576040517f08c379a000000000000000000000000000000000000000000000000000000000815260040161160790612109565b60405180910390fd5b7f000000000000000000000000000000000000000000000000000000000000000073ffffffffffffffffffffffffffffffffffffffff1663a9059cbb337f000000000000000000000000000000000000000000000000000000000000000073ffffffffffffffffffffffffffffffffffffffff166370a08231306040518263ffffffff1660e01b81526004016116a6919061192a565b602060405180830381865afa1580156116c3573d6000803e3d6000fd5b505050506040513d601f19601f820116820180604052508101906116e79190611e1f565b6040518363ffffffff1660e01b81526004016117049291906117f9565b6020604051808303816000875af1158015611723573d6000803e3d6000fd5b505050506040513d601f19601f820116820180604052508101906117479190611b0b565b506000600981905550565b60006064600554836117649190611ca7565b61176e9190611d18565b9050919050565b60095481565b7f000000000000000000000000000000000000000000000000000000000000000081565b600073ffffffffffffffffffffffffffffffffffffffff82169050919050565b60006117ca8261179f565b9050919050565b6117da816117bf565b82525050565b6000819050919050565b6117f3816117e0565b82525050565b600060408201905061180e60008301856117d1565b61181b60208301846117ea565b9392505050565b600060208201905061183760008301846117ea565b92915050565b600080fd5b61184b816117bf565b811461185657600080fd5b50565b60008135905061186881611842565b92915050565b6000602082840312156118845761188361183d565b5b600061189284828501611859565b91505092915050565b60008115159050919050565b6118b08161189b565b82525050565b60006020820190506118cb60008301846118a7565b92915050565b6118da816117e0565b81146118e557600080fd5b50565b6000813590506118f7816118d1565b92915050565b6000602082840312156119135761191261183d565b5b6000611921848285016118e8565b91505092915050565b600060208201905061193f60008301846117d1565b92915050565b6000819050919050565b600061196a6119656119608461179f565b611945565b61179f565b9050919050565b600061197c8261194f565b9050919050565b600061198e82611971565b9050919050565b61199e81611983565b82525050565b60006020820190506119b96000830184611995565b92915050565b600082825260208201905092915050565b7f4f6e6c79206f776e65722063616e206164642061646d696e7300000000000000600082015250565b6000611a066019836119bf565b9150611a11826119d0565b602082019050919050565b60006020820190508181036000830152611a35816119f9565b9050919050565b7f4f6e6c792061646d696e2063616e207472616e7366657220746f6b656e730000600082015250565b6000611a72601e836119bf565b9150611a7d82611a3c565b602082019050919050565b60006020820190508181036000830152611aa181611a65565b9050919050565b6000606082019050611abd60008301866117d1565b611aca60208301856117d1565b611ad760408301846117ea565b949350505050565b611ae88161189b565b8114611af357600080fd5b50565b600081519050611b0581611adf565b92915050565b600060208284031215611b2157611b2061183d565b5b6000611b2f84828501611af6565b91505092915050565b7f4e487b7100000000000000000000000000000000000000000000000000000000600052601160045260246000fd5b6000611b72826117e0565b9150611b7d836117e0565b9250828201905080821115611b9557611b94611b38565b5b92915050565b7f4e6f2072657761726420746f20636c61696d2100000000000000000000000000600082015250565b6000611bd16013836119bf565b9150611bdc82611b9b565b602082019050919050565b60006020820190508181036000830152611c0081611bc4565b9050919050565b7f4e6f2072657761726420746f2072656465656d00000000000000000000000000600082015250565b6000611c3d6013836119bf565b9150611c4882611c07565b602082019050919050565b60006020820190508181036000830152611c6c81611c30565b9050919050565b6000611c7e826117e0565b9150611c89836117e0565b9250828203905081811115611ca157611ca0611b38565b5b92915050565b6000611cb2826117e0565b9150611cbd836117e0565b9250828202611ccb816117e0565b91508282048414831517611ce257611ce1611b38565b5b5092915050565b7f4e487b7100000000000000000000000000000000000000000000000000000000600052601260045260246000fd5b6000611d23826117e0565b9150611d2e836117e0565b925082611d3e57611d3d611ce9565b5b828204905092915050565b7f4f6e6c792061646d696e2063616e2064697374726962757465207574696c697460008201527f7920746f6b656e20726577617264730000000000000000000000000000000000602082015250565b6000611da5602f836119bf565b9150611db082611d49565b604082019050919050565b60006020820190508181036000830152611dd481611d98565b9050919050565b7f4e487b7100000000000000000000000000000000000000000000000000000000600052603260045260246000fd5b600081519050611e19816118d1565b92915050565b600060208284031215611e3557611e3461183d565b5b6000611e4384828501611e0a565b91505092915050565b7f4e6f7420656e6f75676820454e455220746f6b656e7320696e20796f7572207760008201527f616c6c65742c20706c6561736520747279206c657373657220616d6f756e7400602082015250565b6000611ea8603f836119bf565b9150611eb382611e4c565b604082019050919050565b60006020820190508181036000830152611ed781611e9b565b9050919050565b6000604082019050611ef360008301856117d1565b611f0060208301846117d1565b9392505050565b7f4e6f7420656e6f75676820616c6c6f77616e6365206772616e74656420746f2060008201527f74686520636f6e74726163740000000000000000000000000000000000000000602082015250565b6000611f63602c836119bf565b9150611f6e82611f07565b604082019050919050565b60006020820190508181036000830152611f9281611f56565b9050919050565b7f5374616b696e67207468726573686f6c64206c696d697420726561636865642e600082015250565b6000611fcf6020836119bf565b9150611fda82611f99565b602082019050919050565b60006020820190508181036000830152611ffe81611fc2565b9050919050565b7f596f752068617665206e6f20454e45522062616c616e636520746f207769746860008201527f6472617721000000000000000000000000000000000000000000000000000000602082015250565b60006120616025836119bf565b915061206c82612005565b604082019050919050565b6000602082019050818103600083015261209081612054565b9050919050565b7f4f6e6c792061646d696e2063616e207265636c61696d2072656d61696e696e6760008201527f20676f7665726e6d656e7420746f6b656e207265776172647300000000000000602082015250565b60006120f36039836119bf565b91506120fe82612097565b604082019050919050565b60006020820190508181036000830152612122816120e6565b905091905056fea264697066735822122072a3e031bde0f553363aa59532a478fbe1b955c61f9bb8baff7ec6b42f87d62164736f6c63430008180033",
  "linkReferences": {},
  "deployedLinkReferences": {}
}