{
  "_format": "hh-sol-artifact-1",
  "contractName": "Staker",
  "sourceName": "contracts/Staker.sol",
  "abi": [
    {
      "inputs": [
        {
          "internalType": "address",
          "name": "_enerToken",
          "type": "address"
        },
        {
          "internalType": "address",
          "name": "_kwhToken",
          "type": "address"
        },
        {
          "internalType": "uint256",
          "name": "_stakingRewardRate",
          "type": "uint256"
        }
      ],
      "stateMutability": "nonpayable",
      "type": "constructor"
    },
    {
      "anonymous": false,
      "inputs": [
        {
          "indexed": false,
          "internalType": "address",
          "name": "",
          "type": "address"
        },
        {
          "indexed": false,
          "internalType": "uint256",
          "name": "",
          "type": "uint256"
        }
      ],
      "name": "Received",
      "type": "event"
    },
    {
      "anonymous": false,
      "inputs": [
        {
          "indexed": true,
          "internalType": "address",
          "name": "sender",
          "type": "address"
        },
        {
          "indexed": false,
          "internalType": "uint256",
          "name": "amount",
          "type": "uint256"
        }
      ],
      "name": "Stake",
      "type": "event"
    },
    {
      "inputs": [
        {
          "internalType": "uint256",
          "name": "amount",
          "type": "uint256"
        }
      ],
      "name": "_calculateGovernanceTokenStakingRewardByAmount",
      "outputs": [
        {
          "internalType": "uint256",
          "name": "",
          "type": "uint256"
        }
      ],
      "stateMutability": "view",
      "type": "function"
    },
    {
      "inputs": [
        {
          "internalType": "address",
          "name": "user",
          "type": "address"
        }
      ],
      "name": "addAdmin",
      "outputs": [],
      "stateMutability": "nonpayable",
      "type": "function"
    },
    {
      "inputs": [
        {
          "internalType": "uint256",
          "name": "amount",
          "type": "uint256"
        }
      ],
      "name": "addGovernmentTokenReward",
      "outputs": [],
      "stateMutability": "nonpayable",
      "type": "function"
    },
    {
      "inputs": [
        {
          "internalType": "uint256",
          "name": "amount",
          "type": "uint256"
        }
      ],
      "name": "addUtilityTokenReward",
      "outputs": [],
      "stateMutability": "nonpayable",
      "type": "function"
    },
    {
      "inputs": [
        {
          "internalType": "address",
          "name": "",
          "type": "address"
        }
      ],
      "name": "adminMap",
      "outputs": [
        {
          "internalType": "bool",
          "name": "",
          "type": "bool"
        }
      ],
      "stateMutability": "view",
      "type": "function"
    },
    {
      "inputs": [
        {
          "internalType": "address",
          "name": "",
          "type": "address"
        }
      ],
      "name": "balances",
      "outputs": [
        {
          "internalType": "uint256",
          "name": "",
          "type": "uint256"
        }
      ],
      "stateMutability": "view",
      "type": "function"
    },
    {
      "inputs": [
        {
          "internalType": "address",
          "name": "user",
          "type": "address"
        }
      ],
      "name": "calculateGovernanceTokenStakingReward",
      "outputs": [
        {
          "internalType": "uint256",
          "name": "",
          "type": "uint256"
        }
      ],
      "stateMutability": "view",
      "type": "function"
    },
    {
      "inputs": [
        {
          "internalType": "address",
          "name": "user",
          "type": "address"
        }
      ],
      "name": "calculateUtilityTokenReward",
      "outputs": [
        {
          "internalType": "uint256",
          "name": "",
          "type": "uint256"
        }
      ],
      "stateMutability": "view",
      "type": "function"
    },
    {
      "inputs": [
        {
          "internalType": "address",
          "name": "user",
          "type": "address"
        }
      ],
      "name": "calculateUtilityTokenRewardPct",
      "outputs": [
        {
          "internalType": "uint256",
          "name": "",
          "type": "uint256"
        }
      ],
      "stateMutability": "view",
      "type": "function"
    },
    {
      "inputs": [
        {
          "internalType": "address",
          "name": "",
          "type": "address"
        }
      ],
      "name": "depositTimestamps",
      "outputs": [
        {
          "internalType": "uint256",
          "name": "",
          "type": "uint256"
        }
      ],
      "stateMutability": "view",
      "type": "function"
    },
    {
      "inputs": [],
      "name": "governanceToken",
      "outputs": [
        {
          "internalType": "contract IERC20",
          "name": "",
          "type": "address"
        }
      ],
      "stateMutability": "view",
      "type": "function"
    },
    {
      "inputs": [],
      "name": "governanceTokenStakingRewardPool",
      "outputs": [
        {
          "internalType": "uint256",
          "name": "",
          "type": "uint256"
        }
      ],
      "stateMutability": "view",
      "type": "function"
    },
    {
      "inputs": [
        {
          "internalType": "address",
          "name": "user",
          "type": "address"
        }
      ],
      "name": "isAdmin",
      "outputs": [
        {
          "internalType": "bool",
          "name": "",
          "type": "bool"
        }
      ],
      "stateMutability": "view",
      "type": "function"
    },
    {
      "inputs": [],
      "name": "lockDuration",
      "outputs": [
        {
          "internalType": "uint256",
          "name": "",
          "type": "uint256"
        }
      ],
      "stateMutability": "view",
      "type": "function"
    },
    {
      "inputs": [],
      "name": "owner",
      "outputs": [
        {
          "internalType": "address",
          "name": "",
          "type": "address"
        }
      ],
      "stateMutability": "view",
      "type": "function"
    },
    {
      "inputs": [],
      "name": "reclaimRemainingGovernmentTokenReward",
      "outputs": [],
      "stateMutability": "nonpayable",
      "type": "function"
    },
    {
      "inputs": [],
      "name": "redeemUtilityTokenDistribution",
      "outputs": [],
      "stateMutability": "nonpayable",
      "type": "function"
    },
    {
      "inputs": [
        {
          "internalType": "address",
          "name": "user",
          "type": "address"
        }
      ],
      "name": "removeAdmin",
      "outputs": [],
      "stateMutability": "nonpayable",
      "type": "function"
    },
    {
      "inputs": [
        {
          "internalType": "address",
          "name": "",
          "type": "address"
        }
      ],
      "name": "rewards",
      "outputs": [
        {
          "internalType": "uint256",
          "name": "",
          "type": "uint256"
        }
      ],
      "stateMutability": "view",
      "type": "function"
    },
    {
      "inputs": [
        {
          "internalType": "uint256",
          "name": "amount",
          "type": "uint256"
        }
      ],
      "name": "stake",
      "outputs": [],
      "stateMutability": "payable",
      "type": "function"
    },
    {
      "inputs": [],
      "name": "stakingRewardRate",
      "outputs": [
        {
          "internalType": "uint256",
          "name": "",
          "type": "uint256"
        }
      ],
      "stateMutability": "view",
      "type": "function"
    },
    {
      "inputs": [],
      "name": "totalStaked",
      "outputs": [
        {
          "internalType": "uint256",
          "name": "",
          "type": "uint256"
        }
      ],
      "stateMutability": "view",
      "type": "function"
    },
    {
      "inputs": [],
      "name": "utilityToken",
      "outputs": [
        {
          "internalType": "contract IERC20",
          "name": "",
          "type": "address"
        }
      ],
      "stateMutability": "view",
      "type": "function"
    },
    {
      "inputs": [],
      "name": "utilityTokenRewardPool",
      "outputs": [
        {
          "internalType": "uint256",
          "name": "",
          "type": "uint256"
        }
      ],
      "stateMutability": "view",
      "type": "function"
    },
    {
      "inputs": [],
      "name": "withdrawGovernanceToken",
      "outputs": [],
      "stateMutability": "nonpayable",
      "type": "function"
    },
    {
      "stateMutability": "payable",
      "type": "receive"
    }
  ],
  "bytecode": "0x60c0604052620151806003553480156200001857600080fd5b50604051620024fd380380620024fd83398181016040528101906200003e9190620002fa565b600073ffffffffffffffffffffffffffffffffffffffff168273ffffffffffffffffffffffffffffffffffffffff1603620000b0576040517f08c379a0000000000000000000000000000000000000000000000000000000008152600401620000a790620003b7565b60405180910390fd5b8173ffffffffffffffffffffffffffffffffffffffff1660a08173ffffffffffffffffffffffffffffffffffffffff1681525050600073ffffffffffffffffffffffffffffffffffffffff168373ffffffffffffffffffffffffffffffffffffffff160362000156576040517f08c379a00000000000000000000000000000000000000000000000000000000081526004016200014d906200044f565b60405180910390fd5b8273ffffffffffffffffffffffffffffffffffffffff1660808173ffffffffffffffffffffffffffffffffffffffff168152505033600860006101000a81548173ffffffffffffffffffffffffffffffffffffffff021916908373ffffffffffffffffffffffffffffffffffffffff160217905550600160096000600860009054906101000a900473ffffffffffffffffffffffffffffffffffffffff1673ffffffffffffffffffffffffffffffffffffffff1673ffffffffffffffffffffffffffffffffffffffff16815260200190815260200160002060006101000a81548160ff0219169083151502179055508060048190555050505062000471565b600080fd5b600073ffffffffffffffffffffffffffffffffffffffff82169050919050565b600062000287826200025a565b9050919050565b62000299816200027a565b8114620002a557600080fd5b50565b600081519050620002b9816200028e565b92915050565b6000819050919050565b620002d481620002bf565b8114620002e057600080fd5b50565b600081519050620002f481620002c9565b92915050565b60008060006060848603121562000316576200031562000255565b5b60006200032686828701620002a8565b93505060206200033986828701620002a8565b92505060406200034c86828701620002e3565b9150509250925092565b600082825260208201905092915050565b7f7574696c697479546f6b656e2063616e206e6f74206265207a65726f00000000600082015250565b60006200039f601c8362000356565b9150620003ac8262000367565b602082019050919050565b60006020820190508181036000830152620003d28162000390565b9050919050565b7f676f7665726e616e6365546f6b656e416464726573732063616e206e6f74206260008201527f65207a65726f0000000000000000000000000000000000000000000000000000602082015250565b60006200043760268362000356565b91506200044482620003d9565b604082019050919050565b600060208201905081810360008301526200046a8162000428565b9050919050565b60805160a051612027620004d66000396000818161097501528181610c21015261112f01526000818161086901528181610d3501528181610e1201528181610f640152818161136b0152818161152f0152818161156c015261169a01526120276000f3fe60806040526004361061016a5760003560e01c80637f8205f5116100d1578063c082cdca1161008a578063dd7618ec11610064578063dd7618ec14610587578063e61980de1461059e578063f77c9ddb146105db578063f96dae0a14610606576101aa565b8063c082cdca146104f6578063d755ecaa14610533578063dbbc830b1461054a576101aa565b80637f8205f514610405578063817b1cd21461041c5780638da5cb5b1461044757806398e3f1f714610472578063a694fc3a146104af578063ae86ed89146104cb576101aa565b806327e235e31161012357806327e235e3146102f7578063311abd9b146103345780633a61192c1461035d5780634f3fc2df14610388578063649582e4146103b357806370480275146103dc576101aa565b806304554443146101af5780630700037d146101da5780631785f53c146102175780632378866214610240578063240be9441461027d57806324d7806c146102ba576101aa565b366101aa577f88a5966d370b9919b20f3e2c13ff65706f196a4e32cc2c12bf57088f8852587433346040516101a0929190611716565b60405180910390a1005b600080fd5b3480156101bb57600080fd5b506101c4610631565b6040516101d1919061173f565b60405180910390f35b3480156101e657600080fd5b5061020160048036038101906101fc919061178b565b610637565b60405161020e919061173f565b60405180910390f35b34801561022357600080fd5b5061023e6004803603810190610239919061178b565b61064f565b005b34801561024c57600080fd5b506102676004803603810190610262919061178b565b610731565b604051610274919061173f565b60405180910390f35b34801561028957600080fd5b506102a4600480360381019061029f919061178b565b610799565b6040516102b1919061173f565b60405180910390f35b3480156102c657600080fd5b506102e160048036038101906102dc919061178b565b6107b1565b6040516102ee91906117d3565b60405180910390f35b34801561030357600080fd5b5061031e6004803603810190610319919061178b565b610807565b60405161032b919061173f565b60405180910390f35b34801561034057600080fd5b5061035b6004803603810190610356919061181a565b61081f565b005b34801561036957600080fd5b5061037261091f565b60405161037f919061173f565b60405180910390f35b34801561039457600080fd5b5061039d610925565b6040516103aa919061173f565b60405180910390f35b3480156103bf57600080fd5b506103da60048036038101906103d5919061181a565b61092b565b005b3480156103e857600080fd5b5061040360048036038101906103fe919061178b565b610a2b565b005b34801561041157600080fd5b5061041a610b16565b005b34801561042857600080fd5b50610431610cd5565b60405161043e919061173f565b60405180910390f35b34801561045357600080fd5b5061045c610cdb565b6040516104699190611847565b60405180910390f35b34801561047e57600080fd5b506104996004803603810190610494919061178b565b610d01565b6040516104a6919061173f565b60405180910390f35b6104c960048036038101906104c4919061181a565b610d33565b005b3480156104d757600080fd5b506104e061112d565b6040516104ed91906118c1565b60405180910390f35b34801561050257600080fd5b5061051d6004803603810190610518919061178b565b611151565b60405161052a919061173f565b60405180910390f35b34801561053f57600080fd5b506105486111a6565b005b34801561055657600080fd5b50610571600480360381019061056c919061178b565b6114c5565b60405161057e91906117d3565b60405180910390f35b34801561059357600080fd5b5061059c6114e5565b005b3480156105aa57600080fd5b506105c560048036038101906105c0919061181a565b61166f565b6040516105d2919061173f565b60405180910390f35b3480156105e757600080fd5b506105f0611692565b6040516105fd919061173f565b60405180910390f35b34801561061257600080fd5b5061061b611698565b60405161062891906118c1565b60405180910390f35b60035481565b60026020528060005260406000206000915090505481565b600860009054906101000a900473ffffffffffffffffffffffffffffffffffffffff1673ffffffffffffffffffffffffffffffffffffffff163373ffffffffffffffffffffffffffffffffffffffff16146106df576040517f08c379a00000000000000000000000000000000000000000000000000000000081526004016106d690611939565b60405180910390fd5b600960008273ffffffffffffffffffffffffffffffffffffffff1673ffffffffffffffffffffffffffffffffffffffff16815260200190815260200160002060006101000a81549060ff021916905550565b600080600554036107455760009050610794565b6005546000808473ffffffffffffffffffffffffffffffffffffffff1673ffffffffffffffffffffffffffffffffffffffff1681526020019081526020016000205461079191906119b7565b90505b919050565b60016020528060005260406000206000915090505481565b6000600960008373ffffffffffffffffffffffffffffffffffffffff1673ffffffffffffffffffffffffffffffffffffffff16815260200190815260200160002060009054906101000a900460ff169050919050565b60006020528060005260406000206000915090505481565b610828336107b1565b610867576040517f08c379a000000000000000000000000000000000000000000000000000000000815260040161085e90611a34565b60405180910390fd5b7f000000000000000000000000000000000000000000000000000000000000000073ffffffffffffffffffffffffffffffffffffffff166323b872dd3330846040518463ffffffff1660e01b81526004016108c493929190611a54565b6020604051808303816000875af11580156108e3573d6000803e3d6000fd5b505050506040513d601f19601f820116820180604052508101906109079190611ab7565b50806007546109169190611ae4565b60078190555050565b60065481565b60045481565b610934336107b1565b610973576040517f08c379a000000000000000000000000000000000000000000000000000000000815260040161096a90611a34565b60405180910390fd5b7f000000000000000000000000000000000000000000000000000000000000000073ffffffffffffffffffffffffffffffffffffffff166323b872dd3330846040518463ffffffff1660e01b81526004016109d093929190611a54565b6020604051808303816000875af11580156109ef573d6000803e3d6000fd5b505050506040513d601f19601f82011682018060405250810190610a139190611ab7565b5080600654610a229190611ae4565b60068190555050565b600860009054906101000a900473ffffffffffffffffffffffffffffffffffffffff1673ffffffffffffffffffffffffffffffffffffffff163373ffffffffffffffffffffffffffffffffffffffff1614610abb576040517f08c379a0000000000000000000000000000000000000000000000000000000008152600401610ab290611939565b60405180910390fd5b6001600960008373ffffffffffffffffffffffffffffffffffffffff1673ffffffffffffffffffffffffffffffffffffffff16815260200190815260200160002060006101000a81548160ff02191690831515021790555050565b6000600260003373ffffffffffffffffffffffffffffffffffffffff1673ffffffffffffffffffffffffffffffffffffffff1681526020019081526020016000205403610b98576040517f08c379a0000000000000000000000000000000000000000000000000000000008152600401610b8f90611b64565b60405180910390fd5b6000600260003373ffffffffffffffffffffffffffffffffffffffff1673ffffffffffffffffffffffffffffffffffffffff16815260200190815260200160002054905060008111610c1f576040517f08c379a0000000000000000000000000000000000000000000000000000000008152600401610c1690611bd0565b60405180910390fd5b7f000000000000000000000000000000000000000000000000000000000000000073ffffffffffffffffffffffffffffffffffffffff1663a9059cbb33836040518363ffffffff1660e01b8152600401610c7a929190611716565b6020604051808303816000875af1158015610c99573d6000803e3d6000fd5b505050506040513d601f19601f82011682018060405250810190610cbd9190611ab7565b5080600654610ccc9190611bf0565b60068190555050565b60055481565b600860009054906101000a900473ffffffffffffffffffffffffffffffffffffffff1681565b60008060055403610d155760009050610d2e565b610d1e82610731565b600654610d2b9190611c24565b90505b919050565b7f000000000000000000000000000000000000000000000000000000000000000073ffffffffffffffffffffffffffffffffffffffff166370a08231336040518263ffffffff1660e01b8152600401610d8c9190611847565b602060405180830381865afa158015610da9573d6000803e3d6000fd5b505050506040513d601f19601f82011682018060405250810190610dcd9190611c7b565b811115610e0f576040517f08c379a0000000000000000000000000000000000000000000000000000000008152600401610e0690611d1a565b60405180910390fd5b807f000000000000000000000000000000000000000000000000000000000000000073ffffffffffffffffffffffffffffffffffffffff1663dd62ed3e33306040518363ffffffff1660e01b8152600401610e6b929190611d3a565b602060405180830381865afa158015610e88573d6000803e3d6000fd5b505050506040513d601f19601f82011682018060405250810190610eac9190611c7b565b1015610eed576040517f08c379a0000000000000000000000000000000000000000000000000000000008152600401610ee490611dd5565b60405180910390fd5b600081600554610efd9190611ae4565b90506000606460045483610f119190611c24565b610f1b91906119b7565b9050600754811115610f62576040517f08c379a0000000000000000000000000000000000000000000000000000000008152600401610f5990611e41565b60405180910390fd5b7f000000000000000000000000000000000000000000000000000000000000000073ffffffffffffffffffffffffffffffffffffffff166323b872dd3330866040518463ffffffff1660e01b8152600401610fbf93929190611a54565b6020604051808303816000875af1158015610fde573d6000803e3d6000fd5b505050506040513d601f19601f820116820180604052508101906110029190611ab7565b50826000803373ffffffffffffffffffffffffffffffffffffffff1673ffffffffffffffffffffffffffffffffffffffff1681526020019081526020016000205461104d9190611ae4565b6000803373ffffffffffffffffffffffffffffffffffffffff1673ffffffffffffffffffffffffffffffffffffffff1681526020019081526020016000208190555042600160003373ffffffffffffffffffffffffffffffffffffffff1673ffffffffffffffffffffffffffffffffffffffff16815260200190815260200160002081905550816005819055503373ffffffffffffffffffffffffffffffffffffffff167febedb8b3c678666e7f36970bc8f57abf6d8fa2e828c0da91ea5b75bf68ed101a84604051611120919061173f565b60405180910390a2505050565b7f000000000000000000000000000000000000000000000000000000000000000081565b6000806000808473ffffffffffffffffffffffffffffffffffffffff1673ffffffffffffffffffffffffffffffffffffffff16815260200190815260200160002054905061119e8161166f565b915050919050565b60008060003373ffffffffffffffffffffffffffffffffffffffff1673ffffffffffffffffffffffffffffffffffffffff1681526020019081526020016000205411611227576040517f08c379a000000000000000000000000000000000000000000000000000000000815260040161121e90611ead565b60405180910390fd5b60006006541161126c576040517f08c379a000000000000000000000000000000000000000000000000000000000815260040161126390611f3f565b60405180910390fd5b60008060003373ffffffffffffffffffffffffffffffffffffffff1673ffffffffffffffffffffffffffffffffffffffff1681526020019081526020016000205490506000600160003373ffffffffffffffffffffffffffffffffffffffff1673ffffffffffffffffffffffffffffffffffffffff168152602001908152602001600020546003546112fe9190611ae4565b4211156113155761130e33611151565b9050611359565b600160003373ffffffffffffffffffffffffffffffffffffffff1673ffffffffffffffffffffffffffffffffffffffff168152602001908152602001600020600090555b600082826113679190611ae4565b90507f000000000000000000000000000000000000000000000000000000000000000073ffffffffffffffffffffffffffffffffffffffff1663a9059cbb33836040518363ffffffff1660e01b81526004016113c4929190611716565b6020604051808303816000875af11580156113e3573d6000803e3d6000fd5b505050506040513d601f19601f820116820180604052508101906114079190611ab7565b5061141133610d01565b600260003373ffffffffffffffffffffffffffffffffffffffff1673ffffffffffffffffffffffffffffffffffffffff16815260200190815260200160002081905550826005546114629190611bf0565b600581905550816007546114769190611bf0565b60078190555060008060003373ffffffffffffffffffffffffffffffffffffffff1673ffffffffffffffffffffffffffffffffffffffff16815260200190815260200160002081905550505050565b60096020528060005260406000206000915054906101000a900460ff1681565b6114ee336107b1565b61152d576040517f08c379a000000000000000000000000000000000000000000000000000000000815260040161152490611fd1565b60405180910390fd5b7f000000000000000000000000000000000000000000000000000000000000000073ffffffffffffffffffffffffffffffffffffffff1663a9059cbb337f000000000000000000000000000000000000000000000000000000000000000073ffffffffffffffffffffffffffffffffffffffff166370a08231306040518263ffffffff1660e01b81526004016115c39190611847565b602060405180830381865afa1580156115e0573d6000803e3d6000fd5b505050506040513d601f19601f820116820180604052508101906116049190611c7b565b6040518363ffffffff1660e01b8152600401611621929190611716565b6020604051808303816000875af1158015611640573d6000803e3d6000fd5b505050506040513d601f19601f820116820180604052508101906116649190611ab7565b506000600781905550565b60006064600454836116819190611c24565b61168b91906119b7565b9050919050565b60075481565b7f000000000000000000000000000000000000000000000000000000000000000081565b600073ffffffffffffffffffffffffffffffffffffffff82169050919050565b60006116e7826116bc565b9050919050565b6116f7816116dc565b82525050565b6000819050919050565b611710816116fd565b82525050565b600060408201905061172b60008301856116ee565b6117386020830184611707565b9392505050565b60006020820190506117546000830184611707565b92915050565b600080fd5b611768816116dc565b811461177357600080fd5b50565b6000813590506117858161175f565b92915050565b6000602082840312156117a1576117a061175a565b5b60006117af84828501611776565b91505092915050565b60008115159050919050565b6117cd816117b8565b82525050565b60006020820190506117e860008301846117c4565b92915050565b6117f7816116fd565b811461180257600080fd5b50565b600081359050611814816117ee565b92915050565b6000602082840312156118305761182f61175a565b5b600061183e84828501611805565b91505092915050565b600060208201905061185c60008301846116ee565b92915050565b6000819050919050565b600061188761188261187d846116bc565b611862565b6116bc565b9050919050565b60006118998261186c565b9050919050565b60006118ab8261188e565b9050919050565b6118bb816118a0565b82525050565b60006020820190506118d660008301846118b2565b92915050565b600082825260208201905092915050565b7f4f6e6c79206f776e65722063616e206164642061646d696e7300000000000000600082015250565b60006119236019836118dc565b915061192e826118ed565b602082019050919050565b6000602082019050818103600083015261195281611916565b9050919050565b7f4e487b7100000000000000000000000000000000000000000000000000000000600052601260045260246000fd5b7f4e487b7100000000000000000000000000000000000000000000000000000000600052601160045260246000fd5b60006119c2826116fd565b91506119cd836116fd565b9250826119dd576119dc611959565b5b828204905092915050565b7f4f6e6c792061646d696e2063616e207472616e7366657220746f6b656e730000600082015250565b6000611a1e601e836118dc565b9150611a29826119e8565b602082019050919050565b60006020820190508181036000830152611a4d81611a11565b9050919050565b6000606082019050611a6960008301866116ee565b611a7660208301856116ee565b611a836040830184611707565b949350505050565b611a94816117b8565b8114611a9f57600080fd5b50565b600081519050611ab181611a8b565b92915050565b600060208284031215611acd57611acc61175a565b5b6000611adb84828501611aa2565b91505092915050565b6000611aef826116fd565b9150611afa836116fd565b9250828201905080821115611b1257611b11611988565b5b92915050565b7f4e6f2072657761726420746f20636c61696d2100000000000000000000000000600082015250565b6000611b4e6013836118dc565b9150611b5982611b18565b602082019050919050565b60006020820190508181036000830152611b7d81611b41565b9050919050565b7f4e6f2072657761726420746f2072656465656d00000000000000000000000000600082015250565b6000611bba6013836118dc565b9150611bc582611b84565b602082019050919050565b60006020820190508181036000830152611be981611bad565b9050919050565b6000611bfb826116fd565b9150611c06836116fd565b9250828203905081811115611c1e57611c1d611988565b5b92915050565b6000611c2f826116fd565b9150611c3a836116fd565b9250828202611c48816116fd565b91508282048414831517611c5f57611c5e611988565b5b5092915050565b600081519050611c75816117ee565b92915050565b600060208284031215611c9157611c9061175a565b5b6000611c9f84828501611c66565b91505092915050565b7f4e6f7420656e6f75676820454e455220746f6b656e7320696e20796f7572207760008201527f616c6c65742c20706c6561736520747279206c657373657220616d6f756e7400602082015250565b6000611d04603f836118dc565b9150611d0f82611ca8565b604082019050919050565b60006020820190508181036000830152611d3381611cf7565b9050919050565b6000604082019050611d4f60008301856116ee565b611d5c60208301846116ee565b9392505050565b7f4e6f7420656e6f75676820616c6c6f77616e6365206772616e74656420746f2060008201527f74686520636f6e74726163740000000000000000000000000000000000000000602082015250565b6000611dbf602c836118dc565b9150611dca82611d63565b604082019050919050565b60006020820190508181036000830152611dee81611db2565b9050919050565b7f5374616b696e67207468726573686f6c64206c696d697420726561636865642e600082015250565b6000611e2b6020836118dc565b9150611e3682611df5565b602082019050919050565b60006020820190508181036000830152611e5a81611e1e565b9050919050565b7f596f752068617665206e6f2062616c616e636520746f20776974686472617721600082015250565b6000611e976020836118dc565b9150611ea282611e61565b602082019050919050565b60006020820190508181036000830152611ec681611e8a565b9050919050565b7f4b574820746f6b656e206973206e6f742079657420726561647920666f72206460008201527f6973747269627574696f6e000000000000000000000000000000000000000000602082015250565b6000611f29602b836118dc565b9150611f3482611ecd565b604082019050919050565b60006020820190508181036000830152611f5881611f1c565b9050919050565b7f4f6e6c792061646d696e2063616e207265636c61696d2072656d61696e696e6760008201527f20676f7665726e6d656e7420746f6b656e207265776172647300000000000000602082015250565b6000611fbb6039836118dc565b9150611fc682611f5f565b604082019050919050565b60006020820190508181036000830152611fea81611fae565b905091905056fea264697066735822122075697f5ef1198a8ecfc6ecdf4e4e52dece0a314c7aaa1d684bc76d79b380404764736f6c63430008180033",
  "linkReferences": {},
  "deployedLinkReferences": {}
}