{
  "_format": "hh-sol-artifact-1",
  "contractName": "Staker",
  "sourceName": "contracts/Staker.sol",
  "abi": [
    {
      "inputs": [
        {
          "internalType": "address",
          "name": "_enerToken",
          "type": "address"
        },
        {
          "internalType": "address",
          "name": "_kwhToken",
          "type": "address"
        },
        {
          "internalType": "uint256",
          "name": "_stakingRewardRate",
          "type": "uint256"
        }
      ],
      "stateMutability": "nonpayable",
      "type": "constructor"
    },
    {
      "anonymous": false,
      "inputs": [
        {
          "indexed": false,
          "internalType": "address",
          "name": "",
          "type": "address"
        },
        {
          "indexed": false,
          "internalType": "uint256",
          "name": "",
          "type": "uint256"
        }
      ],
      "name": "Received",
      "type": "event"
    },
    {
      "anonymous": false,
      "inputs": [
        {
          "indexed": true,
          "internalType": "address",
          "name": "sender",
          "type": "address"
        },
        {
          "indexed": false,
          "internalType": "uint256",
          "name": "amount",
          "type": "uint256"
        }
      ],
      "name": "Stake",
      "type": "event"
    },
    {
      "inputs": [
        {
          "internalType": "uint256",
          "name": "amount",
          "type": "uint256"
        }
      ],
      "name": "_calculateGovernanceTokenStakingRewardByAmount",
      "outputs": [
        {
          "internalType": "uint256",
          "name": "",
          "type": "uint256"
        }
      ],
      "stateMutability": "view",
      "type": "function"
    },
    {
      "inputs": [
        {
          "internalType": "address",
          "name": "user",
          "type": "address"
        }
      ],
      "name": "addAdmin",
      "outputs": [],
      "stateMutability": "nonpayable",
      "type": "function"
    },
    {
      "inputs": [
        {
          "internalType": "uint256",
          "name": "amount",
          "type": "uint256"
        }
      ],
      "name": "addGovernmentTokenReward",
      "outputs": [],
      "stateMutability": "nonpayable",
      "type": "function"
    },
    {
      "inputs": [
        {
          "internalType": "address",
          "name": "",
          "type": "address"
        }
      ],
      "name": "adminMap",
      "outputs": [
        {
          "internalType": "bool",
          "name": "",
          "type": "bool"
        }
      ],
      "stateMutability": "view",
      "type": "function"
    },
    {
      "inputs": [
        {
          "internalType": "address",
          "name": "",
          "type": "address"
        }
      ],
      "name": "balances",
      "outputs": [
        {
          "internalType": "uint256",
          "name": "",
          "type": "uint256"
        }
      ],
      "stateMutability": "view",
      "type": "function"
    },
    {
      "inputs": [
        {
          "internalType": "address",
          "name": "user",
          "type": "address"
        }
      ],
      "name": "calculateGovernanceTokenStakingReward",
      "outputs": [
        {
          "internalType": "uint256",
          "name": "",
          "type": "uint256"
        }
      ],
      "stateMutability": "view",
      "type": "function"
    },
    {
      "inputs": [
        {
          "internalType": "address",
          "name": "user",
          "type": "address"
        }
      ],
      "name": "calculateUtilityTokenReward",
      "outputs": [
        {
          "internalType": "uint256",
          "name": "",
          "type": "uint256"
        }
      ],
      "stateMutability": "view",
      "type": "function"
    },
    {
      "inputs": [
        {
          "internalType": "address",
          "name": "user",
          "type": "address"
        }
      ],
      "name": "calculateUtilityTokenRewardPct",
      "outputs": [
        {
          "internalType": "uint256",
          "name": "",
          "type": "uint256"
        }
      ],
      "stateMutability": "view",
      "type": "function"
    },
    {
      "inputs": [
        {
          "internalType": "address",
          "name": "",
          "type": "address"
        }
      ],
      "name": "depositTimestamps",
      "outputs": [
        {
          "internalType": "uint256",
          "name": "",
          "type": "uint256"
        }
      ],
      "stateMutability": "view",
      "type": "function"
    },
    {
      "inputs": [
        {
          "internalType": "uint256",
          "name": "amount",
          "type": "uint256"
        }
      ],
      "name": "distributeUtilityTokenReward",
      "outputs": [],
      "stateMutability": "nonpayable",
      "type": "function"
    },
    {
      "inputs": [],
      "name": "governanceToken",
      "outputs": [
        {
          "internalType": "contract IERC20",
          "name": "",
          "type": "address"
        }
      ],
      "stateMutability": "view",
      "type": "function"
    },
    {
      "inputs": [],
      "name": "governanceTokenStakingRewardPool",
      "outputs": [
        {
          "internalType": "uint256",
          "name": "",
          "type": "uint256"
        }
      ],
      "stateMutability": "view",
      "type": "function"
    },
    {
      "inputs": [
        {
          "internalType": "address",
          "name": "user",
          "type": "address"
        }
      ],
      "name": "isAdmin",
      "outputs": [
        {
          "internalType": "bool",
          "name": "",
          "type": "bool"
        }
      ],
      "stateMutability": "view",
      "type": "function"
    },
    {
      "inputs": [],
      "name": "lockDuration",
      "outputs": [
        {
          "internalType": "uint256",
          "name": "",
          "type": "uint256"
        }
      ],
      "stateMutability": "view",
      "type": "function"
    },
    {
      "inputs": [],
      "name": "owner",
      "outputs": [
        {
          "internalType": "address",
          "name": "",
          "type": "address"
        }
      ],
      "stateMutability": "view",
      "type": "function"
    },
    {
      "inputs": [],
      "name": "reclaimRemainingGovernmentTokenReward",
      "outputs": [],
      "stateMutability": "nonpayable",
      "type": "function"
    },
    {
      "inputs": [],
      "name": "redeemUtilityTokenDistribution",
      "outputs": [],
      "stateMutability": "nonpayable",
      "type": "function"
    },
    {
      "inputs": [
        {
          "internalType": "address",
          "name": "user",
          "type": "address"
        }
      ],
      "name": "removeAdmin",
      "outputs": [],
      "stateMutability": "nonpayable",
      "type": "function"
    },
    {
      "inputs": [
        {
          "internalType": "address",
          "name": "",
          "type": "address"
        }
      ],
      "name": "rewards",
      "outputs": [
        {
          "internalType": "uint256",
          "name": "",
          "type": "uint256"
        }
      ],
      "stateMutability": "view",
      "type": "function"
    },
    {
      "inputs": [
        {
          "internalType": "uint256",
          "name": "amount",
          "type": "uint256"
        }
      ],
      "name": "stake",
      "outputs": [],
      "stateMutability": "payable",
      "type": "function"
    },
    {
      "inputs": [],
      "name": "stakingRewardRate",
      "outputs": [
        {
          "internalType": "uint256",
          "name": "",
          "type": "uint256"
        }
      ],
      "stateMutability": "view",
      "type": "function"
    },
    {
      "inputs": [],
      "name": "totalStaked",
      "outputs": [
        {
          "internalType": "uint256",
          "name": "",
          "type": "uint256"
        }
      ],
      "stateMutability": "view",
      "type": "function"
    },
    {
      "inputs": [],
      "name": "utilityToken",
      "outputs": [
        {
          "internalType": "contract IERC20",
          "name": "",
          "type": "address"
        }
      ],
      "stateMutability": "view",
      "type": "function"
    },
    {
      "inputs": [],
      "name": "utilityTokenRewardPool",
      "outputs": [
        {
          "internalType": "uint256",
          "name": "",
          "type": "uint256"
        }
      ],
      "stateMutability": "view",
      "type": "function"
    },
    {
      "inputs": [],
      "name": "utilityTokenRewardPoolBalance",
      "outputs": [
        {
          "internalType": "uint256",
          "name": "",
          "type": "uint256"
        }
      ],
      "stateMutability": "view",
      "type": "function"
    },
    {
      "inputs": [],
      "name": "withdrawGovernanceToken",
      "outputs": [],
      "stateMutability": "nonpayable",
      "type": "function"
    },
    {
      "stateMutability": "payable",
      "type": "receive"
    }
  ],
  "bytecode": "0x60c0604052620151806004553480156200001857600080fd5b50604051620026f7380380620026f783398181016040528101906200003e9190620002fa565b600073ffffffffffffffffffffffffffffffffffffffff168273ffffffffffffffffffffffffffffffffffffffff1603620000b0576040517f08c379a0000000000000000000000000000000000000000000000000000000008152600401620000a790620003b7565b60405180910390fd5b8173ffffffffffffffffffffffffffffffffffffffff1660a08173ffffffffffffffffffffffffffffffffffffffff1681525050600073ffffffffffffffffffffffffffffffffffffffff168373ffffffffffffffffffffffffffffffffffffffff160362000156576040517f08c379a00000000000000000000000000000000000000000000000000000000081526004016200014d906200044f565b60405180910390fd5b8273ffffffffffffffffffffffffffffffffffffffff1660808173ffffffffffffffffffffffffffffffffffffffff168152505033600a60006101000a81548173ffffffffffffffffffffffffffffffffffffffff021916908373ffffffffffffffffffffffffffffffffffffffff1602179055506001600b6000600a60009054906101000a900473ffffffffffffffffffffffffffffffffffffffff1673ffffffffffffffffffffffffffffffffffffffff1673ffffffffffffffffffffffffffffffffffffffff16815260200190815260200160002060006101000a81548160ff0219169083151502179055508060058190555050505062000471565b600080fd5b600073ffffffffffffffffffffffffffffffffffffffff82169050919050565b600062000287826200025a565b9050919050565b62000299816200027a565b8114620002a557600080fd5b50565b600081519050620002b9816200028e565b92915050565b6000819050919050565b620002d481620002bf565b8114620002e057600080fd5b50565b600081519050620002f481620002c9565b92915050565b60008060006060848603121562000316576200031562000255565b5b60006200032686828701620002a8565b93505060206200033986828701620002a8565b92505060406200034c86828701620002e3565b9150509250925092565b600082825260208201905092915050565b7f7574696c697479546f6b656e2063616e206e6f74206265207a65726f00000000600082015250565b60006200039f601c8362000356565b9150620003ac8262000367565b602082019050919050565b60006020820190508181036000830152620003d28162000390565b9050919050565b7f676f7665726e616e6365546f6b656e416464726573732063616e206e6f74206260008201527f65207a65726f0000000000000000000000000000000000000000000000000000602082015250565b60006200043760268362000356565b91506200044482620003d9565b604082019050919050565b600060208201905081810360008301526200046a8162000428565b9050919050565b60805160a051612221620004d660003960008181610b6d01528181610d0e01526113200152600081816108b501528181610ec301528181610fa0015281816110f201528181611517015281816116d401528181611711015261183f01526122216000f3fe6080604052600436106101855760003560e01c8063817b1cd2116100d1578063c082cdca1161008a578063dd7618ec11610064578063dd7618ec146105cd578063e61980de146105e4578063f77c9ddb14610621578063f96dae0a1461064c576101c5565b8063c082cdca1461053c578063d755ecaa14610579578063dbbc830b14610590576101c5565b8063817b1cd2146104395780638da5cb5b1461046457806398e3f1f71461048f5780639bb28366146104cc578063a694fc3a146104f5578063ae86ed8914610511576101c5565b806324d7806c1161013e5780633a61192c116101185780633a61192c146103a35780634f3fc2df146103ce57806370480275146103f95780637f8205f514610422576101c5565b806324d7806c1461030057806327e235e31461033d578063311abd9b1461037a576101c5565b806304554443146101ca5780630700037d146101f5578063145f0106146102325780631785f53c1461025d5780632378866214610286578063240be944146102c3576101c5565b366101c5577f88a5966d370b9919b20f3e2c13ff65706f196a4e32cc2c12bf57088f8852587433346040516101bb9291906118bb565b60405180910390a1005b600080fd5b3480156101d657600080fd5b506101df610677565b6040516101ec91906118e4565b60405180910390f35b34801561020157600080fd5b5061021c60048036038101906102179190611930565b61067d565b60405161022991906118e4565b60405180910390f35b34801561023e57600080fd5b50610247610695565b60405161025491906118e4565b60405180910390f35b34801561026957600080fd5b50610284600480360381019061027f9190611930565b61069b565b005b34801561029257600080fd5b506102ad60048036038101906102a89190611930565b61077d565b6040516102ba91906118e4565b60405180910390f35b3480156102cf57600080fd5b506102ea60048036038101906102e59190611930565b6107e5565b6040516102f791906118e4565b60405180910390f35b34801561030c57600080fd5b5061032760048036038101906103229190611930565b6107fd565b6040516103349190611978565b60405180910390f35b34801561034957600080fd5b50610364600480360381019061035f9190611930565b610853565b60405161037191906118e4565b60405180910390f35b34801561038657600080fd5b506103a1600480360381019061039c91906119bf565b61086b565b005b3480156103af57600080fd5b506103b861096b565b6040516103c591906118e4565b60405180910390f35b3480156103da57600080fd5b506103e3610971565b6040516103f091906118e4565b60405180910390f35b34801561040557600080fd5b50610420600480360381019061041b9190611930565b610977565b005b34801561042e57600080fd5b50610437610a62565b005b34801561044557600080fd5b5061044e610c66565b60405161045b91906118e4565b60405180910390f35b34801561047057600080fd5b50610479610c6c565b60405161048691906119ec565b60405180910390f35b34801561049b57600080fd5b506104b660048036038101906104b19190611930565b610c92565b6040516104c391906118e4565b60405180910390f35b3480156104d857600080fd5b506104f360048036038101906104ee91906119bf565b610cc4565b005b61050f600480360381019061050a91906119bf565b610ec1565b005b34801561051d57600080fd5b5061052661131e565b6040516105339190611a66565b60405180910390f35b34801561054857600080fd5b50610563600480360381019061055e9190611930565b611342565b60405161057091906118e4565b60405180910390f35b34801561058557600080fd5b5061058e611397565b005b34801561059c57600080fd5b506105b760048036038101906105b29190611930565b61166a565b6040516105c49190611978565b60405180910390f35b3480156105d957600080fd5b506105e261168a565b005b3480156105f057600080fd5b5061060b600480360381019061060691906119bf565b611814565b60405161061891906118e4565b60405180910390f35b34801561062d57600080fd5b50610636611837565b60405161064391906118e4565b60405180910390f35b34801561065857600080fd5b5061066161183d565b60405161066e9190611a66565b60405180910390f35b60045481565b60026020528060005260406000206000915090505481565b60085481565b600a60009054906101000a900473ffffffffffffffffffffffffffffffffffffffff1673ffffffffffffffffffffffffffffffffffffffff163373ffffffffffffffffffffffffffffffffffffffff161461072b576040517f08c379a000000000000000000000000000000000000000000000000000000000815260040161072290611ade565b60405180910390fd5b600b60008273ffffffffffffffffffffffffffffffffffffffff1673ffffffffffffffffffffffffffffffffffffffff16815260200190815260200160002060006101000a81549060ff021916905550565b6000806006540361079157600090506107e0565b6006546000808473ffffffffffffffffffffffffffffffffffffffff1673ffffffffffffffffffffffffffffffffffffffff168152602001908152602001600020546107dd9190611b5c565b90505b919050565b60016020528060005260406000206000915090505481565b6000600b60008373ffffffffffffffffffffffffffffffffffffffff1673ffffffffffffffffffffffffffffffffffffffff16815260200190815260200160002060009054906101000a900460ff169050919050565b60006020528060005260406000206000915090505481565b610874336107fd565b6108b3576040517f08c379a00000000000000000000000000000000000000000000000000000000081526004016108aa90611bd9565b60405180910390fd5b7f000000000000000000000000000000000000000000000000000000000000000073ffffffffffffffffffffffffffffffffffffffff166323b872dd3330846040518463ffffffff1660e01b815260040161091093929190611bf9565b6020604051808303816000875af115801561092f573d6000803e3d6000fd5b505050506040513d601f19601f820116820180604052508101906109539190611c5c565b50806009546109629190611c89565b60098190555050565b60075481565b60055481565b600a60009054906101000a900473ffffffffffffffffffffffffffffffffffffffff1673ffffffffffffffffffffffffffffffffffffffff163373ffffffffffffffffffffffffffffffffffffffff1614610a07576040517f08c379a00000000000000000000000000000000000000000000000000000000081526004016109fe90611ade565b60405180910390fd5b6001600b60008373ffffffffffffffffffffffffffffffffffffffff1673ffffffffffffffffffffffffffffffffffffffff16815260200190815260200160002060006101000a81548160ff02191690831515021790555050565b6000600260003373ffffffffffffffffffffffffffffffffffffffff1673ffffffffffffffffffffffffffffffffffffffff1681526020019081526020016000205403610ae4576040517f08c379a0000000000000000000000000000000000000000000000000000000008152600401610adb90611d09565b60405180910390fd5b6000600260003373ffffffffffffffffffffffffffffffffffffffff1673ffffffffffffffffffffffffffffffffffffffff16815260200190815260200160002054905060008111610b6b576040517f08c379a0000000000000000000000000000000000000000000000000000000008152600401610b6290611d75565b60405180910390fd5b7f000000000000000000000000000000000000000000000000000000000000000073ffffffffffffffffffffffffffffffffffffffff1663a9059cbb33836040518363ffffffff1660e01b8152600401610bc69291906118bb565b6020604051808303816000875af1158015610be5573d6000803e3d6000fd5b505050506040513d601f19601f82011682018060405250810190610c099190611c5c565b506000600260003373ffffffffffffffffffffffffffffffffffffffff1673ffffffffffffffffffffffffffffffffffffffff1681526020019081526020016000208190555080600854610c5d9190611d95565b60088190555050565b60065481565b600a60009054906101000a900473ffffffffffffffffffffffffffffffffffffffff1681565b60008060065403610ca65760009050610cbf565b610caf8261077d565b600754610cbc9190611dc9565b90505b919050565b610ccd336107fd565b610d0c576040517f08c379a0000000000000000000000000000000000000000000000000000000008152600401610d0390611e7d565b60405180910390fd5b7f000000000000000000000000000000000000000000000000000000000000000073ffffffffffffffffffffffffffffffffffffffff166323b872dd3330846040518463ffffffff1660e01b8152600401610d6993929190611bf9565b6020604051808303816000875af1158015610d88573d6000803e3d6000fd5b505050506040513d601f19601f82011682018060405250810190610dac9190611c5c565b5080600854610dbb9190611c89565b60078190555060075460088190555060005b600380549050811015610ebd576000610e2360038381548110610df357610df2611e9d565b5b9060005260206000200160009054906101000a900473ffffffffffffffffffffffffffffffffffffffff16610c92565b90506000811115610eb157806002600060038581548110610e4757610e46611e9d565b5b9060005260206000200160009054906101000a900473ffffffffffffffffffffffffffffffffffffffff1673ffffffffffffffffffffffffffffffffffffffff1673ffffffffffffffffffffffffffffffffffffffff168152602001908152602001600020819055505b50806001019050610dcd565b5050565b7f000000000000000000000000000000000000000000000000000000000000000073ffffffffffffffffffffffffffffffffffffffff166370a08231336040518263ffffffff1660e01b8152600401610f1a91906119ec565b602060405180830381865afa158015610f37573d6000803e3d6000fd5b505050506040513d601f19601f82011682018060405250810190610f5b9190611ee1565b811115610f9d576040517f08c379a0000000000000000000000000000000000000000000000000000000008152600401610f9490611f80565b60405180910390fd5b807f000000000000000000000000000000000000000000000000000000000000000073ffffffffffffffffffffffffffffffffffffffff1663dd62ed3e33306040518363ffffffff1660e01b8152600401610ff9929190611fa0565b602060405180830381865afa158015611016573d6000803e3d6000fd5b505050506040513d601f19601f8201168201806040525081019061103a9190611ee1565b101561107b576040517f08c379a00000000000000000000000000000000000000000000000000000000081526004016110729061203b565b60405180910390fd5b60008160065461108b9190611c89565b9050600060646005548361109f9190611dc9565b6110a99190611b5c565b90506009548111156110f0576040517f08c379a00000000000000000000000000000000000000000000000000000000081526004016110e7906120a7565b60405180910390fd5b7f000000000000000000000000000000000000000000000000000000000000000073ffffffffffffffffffffffffffffffffffffffff166323b872dd3330866040518463ffffffff1660e01b815260040161114d93929190611bf9565b6020604051808303816000875af115801561116c573d6000803e3d6000fd5b505050506040513d601f19601f820116820180604052508101906111909190611c5c565b50826000803373ffffffffffffffffffffffffffffffffffffffff1673ffffffffffffffffffffffffffffffffffffffff168152602001908152602001600020546111db9190611c89565b6000803373ffffffffffffffffffffffffffffffffffffffff1673ffffffffffffffffffffffffffffffffffffffff1681526020019081526020016000208190555042600160003373ffffffffffffffffffffffffffffffffffffffff1673ffffffffffffffffffffffffffffffffffffffff16815260200190815260200160002081905550816006819055506003339080600181540180825580915050600190039060005260206000200160009091909190916101000a81548173ffffffffffffffffffffffffffffffffffffffff021916908373ffffffffffffffffffffffffffffffffffffffff1602179055503373ffffffffffffffffffffffffffffffffffffffff167febedb8b3c678666e7f36970bc8f57abf6d8fa2e828c0da91ea5b75bf68ed101a8460405161131191906118e4565b60405180910390a2505050565b7f000000000000000000000000000000000000000000000000000000000000000081565b6000806000808473ffffffffffffffffffffffffffffffffffffffff1673ffffffffffffffffffffffffffffffffffffffff16815260200190815260200160002054905061138f81611814565b915050919050565b60008060003373ffffffffffffffffffffffffffffffffffffffff1673ffffffffffffffffffffffffffffffffffffffff1681526020019081526020016000205411611418576040517f08c379a000000000000000000000000000000000000000000000000000000000815260040161140f90612139565b60405180910390fd5b60008060003373ffffffffffffffffffffffffffffffffffffffff1673ffffffffffffffffffffffffffffffffffffffff1681526020019081526020016000205490506000600160003373ffffffffffffffffffffffffffffffffffffffff1673ffffffffffffffffffffffffffffffffffffffff168152602001908152602001600020546004546114aa9190611c89565b4211156114c1576114ba33611342565b9050611505565b600160003373ffffffffffffffffffffffffffffffffffffffff1673ffffffffffffffffffffffffffffffffffffffff168152602001908152602001600020600090555b600082826115139190611c89565b90507f000000000000000000000000000000000000000000000000000000000000000073ffffffffffffffffffffffffffffffffffffffff1663a9059cbb33836040518363ffffffff1660e01b81526004016115709291906118bb565b6020604051808303816000875af115801561158f573d6000803e3d6000fd5b505050506040513d601f19601f820116820180604052508101906115b39190611c5c565b50826006546115c29190611d95565b600681905550816009546115d69190611d95565b6009819055506000600260003373ffffffffffffffffffffffffffffffffffffffff1673ffffffffffffffffffffffffffffffffffffffff1681526020019081526020016000208190555060008060003373ffffffffffffffffffffffffffffffffffffffff1673ffffffffffffffffffffffffffffffffffffffff16815260200190815260200160002081905550505050565b600b6020528060005260406000206000915054906101000a900460ff1681565b611693336107fd565b6116d2576040517f08c379a00000000000000000000000000000000000000000000000000000000081526004016116c9906121cb565b60405180910390fd5b7f000000000000000000000000000000000000000000000000000000000000000073ffffffffffffffffffffffffffffffffffffffff1663a9059cbb337f000000000000000000000000000000000000000000000000000000000000000073ffffffffffffffffffffffffffffffffffffffff166370a08231306040518263ffffffff1660e01b815260040161176891906119ec565b602060405180830381865afa158015611785573d6000803e3d6000fd5b505050506040513d601f19601f820116820180604052508101906117a99190611ee1565b6040518363ffffffff1660e01b81526004016117c69291906118bb565b6020604051808303816000875af11580156117e5573d6000803e3d6000fd5b505050506040513d601f19601f820116820180604052508101906118099190611c5c565b506000600981905550565b60006064600554836118269190611dc9565b6118309190611b5c565b9050919050565b60095481565b7f000000000000000000000000000000000000000000000000000000000000000081565b600073ffffffffffffffffffffffffffffffffffffffff82169050919050565b600061188c82611861565b9050919050565b61189c81611881565b82525050565b6000819050919050565b6118b5816118a2565b82525050565b60006040820190506118d06000830185611893565b6118dd60208301846118ac565b9392505050565b60006020820190506118f960008301846118ac565b92915050565b600080fd5b61190d81611881565b811461191857600080fd5b50565b60008135905061192a81611904565b92915050565b600060208284031215611946576119456118ff565b5b60006119548482850161191b565b91505092915050565b60008115159050919050565b6119728161195d565b82525050565b600060208201905061198d6000830184611969565b92915050565b61199c816118a2565b81146119a757600080fd5b50565b6000813590506119b981611993565b92915050565b6000602082840312156119d5576119d46118ff565b5b60006119e3848285016119aa565b91505092915050565b6000602082019050611a016000830184611893565b92915050565b6000819050919050565b6000611a2c611a27611a2284611861565b611a07565b611861565b9050919050565b6000611a3e82611a11565b9050919050565b6000611a5082611a33565b9050919050565b611a6081611a45565b82525050565b6000602082019050611a7b6000830184611a57565b92915050565b600082825260208201905092915050565b7f4f6e6c79206f776e65722063616e206164642061646d696e7300000000000000600082015250565b6000611ac8601983611a81565b9150611ad382611a92565b602082019050919050565b60006020820190508181036000830152611af781611abb565b9050919050565b7f4e487b7100000000000000000000000000000000000000000000000000000000600052601260045260246000fd5b7f4e487b7100000000000000000000000000000000000000000000000000000000600052601160045260246000fd5b6000611b67826118a2565b9150611b72836118a2565b925082611b8257611b81611afe565b5b828204905092915050565b7f4f6e6c792061646d696e2063616e207472616e7366657220746f6b656e730000600082015250565b6000611bc3601e83611a81565b9150611bce82611b8d565b602082019050919050565b60006020820190508181036000830152611bf281611bb6565b9050919050565b6000606082019050611c0e6000830186611893565b611c1b6020830185611893565b611c2860408301846118ac565b949350505050565b611c398161195d565b8114611c4457600080fd5b50565b600081519050611c5681611c30565b92915050565b600060208284031215611c7257611c716118ff565b5b6000611c8084828501611c47565b91505092915050565b6000611c94826118a2565b9150611c9f836118a2565b9250828201905080821115611cb757611cb6611b2d565b5b92915050565b7f4e6f2072657761726420746f20636c61696d2100000000000000000000000000600082015250565b6000611cf3601383611a81565b9150611cfe82611cbd565b602082019050919050565b60006020820190508181036000830152611d2281611ce6565b9050919050565b7f4e6f2072657761726420746f2072656465656d00000000000000000000000000600082015250565b6000611d5f601383611a81565b9150611d6a82611d29565b602082019050919050565b60006020820190508181036000830152611d8e81611d52565b9050919050565b6000611da0826118a2565b9150611dab836118a2565b9250828203905081811115611dc357611dc2611b2d565b5b92915050565b6000611dd4826118a2565b9150611ddf836118a2565b9250828202611ded816118a2565b91508282048414831517611e0457611e03611b2d565b5b5092915050565b7f4f6e6c792061646d696e2063616e2064697374726962757465207574696c697460008201527f7920746f6b656e20726577617264730000000000000000000000000000000000602082015250565b6000611e67602f83611a81565b9150611e7282611e0b565b604082019050919050565b60006020820190508181036000830152611e9681611e5a565b9050919050565b7f4e487b7100000000000000000000000000000000000000000000000000000000600052603260045260246000fd5b600081519050611edb81611993565b92915050565b600060208284031215611ef757611ef66118ff565b5b6000611f0584828501611ecc565b91505092915050565b7f4e6f7420656e6f75676820454e455220746f6b656e7320696e20796f7572207760008201527f616c6c65742c20706c6561736520747279206c657373657220616d6f756e7400602082015250565b6000611f6a603f83611a81565b9150611f7582611f0e565b604082019050919050565b60006020820190508181036000830152611f9981611f5d565b9050919050565b6000604082019050611fb56000830185611893565b611fc26020830184611893565b9392505050565b7f4e6f7420656e6f75676820616c6c6f77616e6365206772616e74656420746f2060008201527f74686520636f6e74726163740000000000000000000000000000000000000000602082015250565b6000612025602c83611a81565b915061203082611fc9565b604082019050919050565b6000602082019050818103600083015261205481612018565b9050919050565b7f5374616b696e67207468726573686f6c64206c696d697420726561636865642e600082015250565b6000612091602083611a81565b915061209c8261205b565b602082019050919050565b600060208201905081810360008301526120c081612084565b9050919050565b7f596f752068617665206e6f20454e45522062616c616e636520746f207769746860008201527f6472617721000000000000000000000000000000000000000000000000000000602082015250565b6000612123602583611a81565b915061212e826120c7565b604082019050919050565b6000602082019050818103600083015261215281612116565b9050919050565b7f4f6e6c792061646d696e2063616e207265636c61696d2072656d61696e696e6760008201527f20676f7665726e6d656e7420746f6b656e207265776172647300000000000000602082015250565b60006121b5603983611a81565b91506121c082612159565b604082019050919050565b600060208201905081810360008301526121e4816121a8565b905091905056fea2646970667358221220a4b4c1aa31dfe5c39bef7885b79394a5216cf965eab51235699d7c2c6436e54664736f6c63430008180033",
  "linkReferences": {},
  "deployedLinkReferences": {}
}